{
  "_format": "hh-sol-artifact-1",
  "contractName": "MachineMask",
  "sourceName": "contracts/MachineMask.sol",
  "abi": [
    {
      "inputs": [
        {
          "internalType": "address payable",
          "name": "treasury_",
          "type": "address"
        },
        {
          "internalType": "bytes32",
          "name": "merkleRoot_",
          "type": "bytes32"
        }
      ],
      "stateMutability": "nonpayable",
      "type": "constructor"
    },
    {
      "anonymous": false,
      "inputs": [
        {
          "indexed": true,
          "internalType": "address",
          "name": "owner",
          "type": "address"
        },
        {
          "indexed": true,
          "internalType": "address",
          "name": "approved",
          "type": "address"
        },
        {
          "indexed": true,
          "internalType": "uint256",
          "name": "tokenId",
          "type": "uint256"
        }
      ],
      "name": "Approval",
      "type": "event"
    },
    {
      "anonymous": false,
      "inputs": [
        {
          "indexed": true,
          "internalType": "address",
          "name": "owner",
          "type": "address"
        },
        {
          "indexed": true,
          "internalType": "address",
          "name": "operator",
          "type": "address"
        },
        {
          "indexed": false,
          "internalType": "bool",
          "name": "approved",
          "type": "bool"
        }
      ],
      "name": "ApprovalForAll",
      "type": "event"
    },
    {
      "anonymous": false,
      "inputs": [
        {
          "indexed": false,
          "internalType": "uint256",
          "name": "index_",
          "type": "uint256"
        },
        {
          "indexed": false,
          "internalType": "string",
          "name": "tokenURI_",
          "type": "string"
        }
      ],
      "name": "Claimed",
      "type": "event"
    },
    {
      "anonymous": false,
      "inputs": [
        {
          "indexed": true,
          "internalType": "address",
          "name": "previousOwner",
          "type": "address"
        },
        {
          "indexed": true,
          "internalType": "address",
          "name": "newOwner",
          "type": "address"
        }
      ],
      "name": "OwnershipTransferred",
      "type": "event"
    },
    {
      "anonymous": false,
      "inputs": [
        {
          "indexed": true,
          "internalType": "address",
          "name": "from",
          "type": "address"
        },
        {
          "indexed": true,
          "internalType": "address",
          "name": "to",
          "type": "address"
        },
        {
          "indexed": true,
          "internalType": "uint256",
          "name": "tokenId",
          "type": "uint256"
        }
      ],
      "name": "Transfer",
      "type": "event"
    },
    {
      "inputs": [
        {
          "internalType": "address",
          "name": "to",
          "type": "address"
        },
        {
          "internalType": "uint256",
          "name": "tokenId",
          "type": "uint256"
        }
      ],
      "name": "approve",
      "outputs": [],
      "stateMutability": "nonpayable",
      "type": "function"
    },
    {
      "inputs": [
        {
          "internalType": "address",
          "name": "owner",
          "type": "address"
        }
      ],
      "name": "balanceOf",
      "outputs": [
        {
          "internalType": "uint256",
          "name": "",
          "type": "uint256"
        }
      ],
      "stateMutability": "view",
      "type": "function"
    },
    {
      "inputs": [],
      "name": "baseURI",
      "outputs": [
        {
          "internalType": "string",
          "name": "",
          "type": "string"
        }
      ],
      "stateMutability": "view",
      "type": "function"
    },
    {
      "inputs": [
        {
          "internalType": "uint256",
          "name": "index_",
          "type": "uint256"
        },
        {
          "internalType": "string",
          "name": "tokenURI_",
          "type": "string"
        },
        {
          "internalType": "bytes32[]",
          "name": "merkleProof_",
          "type": "bytes32[]"
        }
      ],
      "name": "claim",
      "outputs": [],
      "stateMutability": "payable",
      "type": "function"
    },
    {
      "inputs": [
        {
          "internalType": "uint256",
          "name": "tokenId",
          "type": "uint256"
        }
      ],
      "name": "getApproved",
      "outputs": [
        {
          "internalType": "address",
          "name": "",
          "type": "address"
        }
      ],
      "stateMutability": "view",
      "type": "function"
    },
    {
      "inputs": [
        {
          "internalType": "address",
          "name": "owner",
          "type": "address"
        },
        {
          "internalType": "address",
          "name": "operator",
          "type": "address"
        }
      ],
      "name": "isApprovedForAll",
      "outputs": [
        {
          "internalType": "bool",
          "name": "",
          "type": "bool"
        }
      ],
      "stateMutability": "view",
      "type": "function"
    },
    {
      "inputs": [
        {
          "internalType": "uint256",
          "name": "index_",
          "type": "uint256"
        }
      ],
      "name": "isClaimed",
      "outputs": [
        {
          "internalType": "bool",
          "name": "",
          "type": "bool"
        }
      ],
      "stateMutability": "view",
      "type": "function"
    },
    {
      "inputs": [],
      "name": "merkleRoot",
      "outputs": [
        {
          "internalType": "bytes32",
          "name": "",
          "type": "bytes32"
        }
      ],
      "stateMutability": "view",
      "type": "function"
    },
    {
      "inputs": [],
      "name": "mintFees",
      "outputs": [
        {
          "internalType": "uint256",
          "name": "",
          "type": "uint256"
        }
      ],
      "stateMutability": "view",
      "type": "function"
    },
    {
      "inputs": [],
      "name": "name",
      "outputs": [
        {
          "internalType": "string",
          "name": "",
          "type": "string"
        }
      ],
      "stateMutability": "view",
      "type": "function"
    },
    {
      "inputs": [],
      "name": "owner",
      "outputs": [
        {
          "internalType": "address",
          "name": "",
          "type": "address"
        }
      ],
      "stateMutability": "view",
      "type": "function"
    },
    {
      "inputs": [
        {
          "internalType": "uint256",
          "name": "tokenId",
          "type": "uint256"
        }
      ],
      "name": "ownerOf",
      "outputs": [
        {
          "internalType": "address",
          "name": "",
          "type": "address"
        }
      ],
      "stateMutability": "view",
      "type": "function"
    },
    {
      "inputs": [],
      "name": "renounceOwnership",
      "outputs": [],
      "stateMutability": "nonpayable",
      "type": "function"
    },
    {
      "inputs": [
        {
          "internalType": "address",
          "name": "from",
          "type": "address"
        },
        {
          "internalType": "address",
          "name": "to",
          "type": "address"
        },
        {
          "internalType": "uint256",
          "name": "tokenId",
          "type": "uint256"
        }
      ],
      "name": "safeTransferFrom",
      "outputs": [],
      "stateMutability": "nonpayable",
      "type": "function"
    },
    {
      "inputs": [
        {
          "internalType": "address",
          "name": "from",
          "type": "address"
        },
        {
          "internalType": "address",
          "name": "to",
          "type": "address"
        },
        {
          "internalType": "uint256",
          "name": "tokenId",
          "type": "uint256"
        },
        {
          "internalType": "bytes",
          "name": "_data",
          "type": "bytes"
        }
      ],
      "name": "safeTransferFrom",
      "outputs": [],
      "stateMutability": "nonpayable",
      "type": "function"
    },
    {
      "inputs": [
        {
          "internalType": "address",
          "name": "operator",
          "type": "address"
        },
        {
          "internalType": "bool",
          "name": "approved",
          "type": "bool"
        }
      ],
      "name": "setApprovalForAll",
      "outputs": [],
      "stateMutability": "nonpayable",
      "type": "function"
    },
    {
      "inputs": [
        {
          "internalType": "bytes4",
          "name": "interfaceId",
          "type": "bytes4"
        }
      ],
      "name": "supportsInterface",
      "outputs": [
        {
          "internalType": "bool",
          "name": "",
          "type": "bool"
        }
      ],
      "stateMutability": "view",
      "type": "function"
    },
    {
      "inputs": [],
      "name": "symbol",
      "outputs": [
        {
          "internalType": "string",
          "name": "",
          "type": "string"
        }
      ],
      "stateMutability": "view",
      "type": "function"
    },
    {
      "inputs": [
        {
          "internalType": "uint256",
          "name": "index",
          "type": "uint256"
        }
      ],
      "name": "tokenByIndex",
      "outputs": [
        {
          "internalType": "uint256",
          "name": "",
          "type": "uint256"
        }
      ],
      "stateMutability": "view",
      "type": "function"
    },
    {
      "inputs": [
        {
          "internalType": "address",
          "name": "owner",
          "type": "address"
        },
        {
          "internalType": "uint256",
          "name": "index",
          "type": "uint256"
        }
      ],
      "name": "tokenOfOwnerByIndex",
      "outputs": [
        {
          "internalType": "uint256",
          "name": "",
          "type": "uint256"
        }
      ],
      "stateMutability": "view",
      "type": "function"
    },
    {
      "inputs": [
        {
          "internalType": "uint256",
          "name": "tokenId",
          "type": "uint256"
        }
      ],
      "name": "tokenURI",
      "outputs": [
        {
          "internalType": "string",
          "name": "",
          "type": "string"
        }
      ],
      "stateMutability": "view",
      "type": "function"
    },
    {
      "inputs": [],
      "name": "totalAssetsSupply",
      "outputs": [
        {
          "internalType": "uint256",
          "name": "",
          "type": "uint256"
        }
      ],
      "stateMutability": "view",
      "type": "function"
    },
    {
      "inputs": [],
      "name": "totalSupply",
      "outputs": [
        {
          "internalType": "uint256",
          "name": "",
          "type": "uint256"
        }
      ],
      "stateMutability": "view",
      "type": "function"
    },
    {
      "inputs": [
        {
          "internalType": "address",
          "name": "from",
          "type": "address"
        },
        {
          "internalType": "address",
          "name": "to",
          "type": "address"
        },
        {
          "internalType": "uint256",
          "name": "tokenId",
          "type": "uint256"
        }
      ],
      "name": "transferFrom",
      "outputs": [],
      "stateMutability": "nonpayable",
      "type": "function"
    },
    {
      "inputs": [
        {
          "internalType": "address",
          "name": "newOwner",
          "type": "address"
        }
      ],
      "name": "transferOwnership",
      "outputs": [],
      "stateMutability": "nonpayable",
      "type": "function"
    },
    {
      "inputs": [],
      "name": "treasury",
      "outputs": [
        {
          "internalType": "address payable",
          "name": "",
          "type": "address"
        }
      ],
      "stateMutability": "view",
      "type": "function"
    },
    {
      "inputs": [
        {
          "internalType": "bytes32",
          "name": "",
          "type": "bytes32"
        }
      ],
      "name": "uriToTokenId",
      "outputs": [
        {
          "internalType": "uint256",
          "name": "",
          "type": "uint256"
        }
      ],
      "stateMutability": "view",
      "type": "function"
    }
  ],
  "bytecode": "0x60e060405267016345785d8a0000600c553480156200001d57600080fd5b50604051620043743803806200437483398181016040528101906200004391906200049c565b6040518060400160405280600c81526020017f4d616368696e654d61736b7300000000000000000000000000000000000000008152506040518060400160405280600281526020017f4d4d000000000000000000000000000000000000000000000000000000000000815250620000c76301ffc9a760e01b6200028b60201b60201c565b8160069080519060200190620000df929190620003b8565b508060079080519060200190620000f8929190620003b8565b50620001116380ac58cd60e01b6200028b60201b60201c565b62000129635b5e139f60e01b6200028b60201b60201c565b6200014163780e9d6360e01b6200028b60201b60201c565b50506000620001556200039460201b60201c565b905080600a60006101000a81548173ffffffffffffffffffffffffffffffffffffffff021916908373ffffffffffffffffffffffffffffffffffffffff1602179055508073ffffffffffffffffffffffffffffffffffffffff16600073ffffffffffffffffffffffffffffffffffffffff167f8be0079c531659141344cd1fd0a4f28419497f9722a3daafe3b4186f6b6457e060405160405180910390a3506200023a6040518060400160405280601581526020017f68747470733a2f2f697066732e696f2f697066732f00000000000000000000008152506200039c60201b60201c565b8173ffffffffffffffffffffffffffffffffffffffff1660a08173ffffffffffffffffffffffffffffffffffffffff1660601b81525050806080818152505061271060c0818152505050506200054f565b63ffffffff60e01b817bffffffffffffffffffffffffffffffffffffffffffffffffffffffff1916141562000328576040517f08c379a000000000000000000000000000000000000000000000000000000000815260040180806020018281038252601c8152602001807f4552433136353a20696e76616c696420696e746572666163652069640000000081525060200191505060405180910390fd5b6001600080837bffffffffffffffffffffffffffffffffffffffffffffffffffffffff19167bffffffffffffffffffffffffffffffffffffffffffffffffffffffff1916815260200190815260200160002060006101000a81548160ff02191690831515021790555050565b600033905090565b8060099080519060200190620003b4929190620003b8565b5050565b828054600181600116156101000203166002900490600052602060002090601f016020900481019282620003f057600085556200043c565b82601f106200040b57805160ff19168380011785556200043c565b828001600101855582156200043c579182015b828111156200043b5782518255916020019190600101906200041e565b5b5090506200044b91906200044f565b5090565b5b808211156200046a57600081600090555060010162000450565b5090565b6000815190506200047f816200051b565b92915050565b600081519050620004968162000535565b92915050565b60008060408385031215620004b057600080fd5b6000620004c0858286016200046e565b9250506020620004d38582860162000485565b9150509250929050565b6000620004ea82620004fb565b9050919050565b6000819050919050565b600073ffffffffffffffffffffffffffffffffffffffff82169050919050565b6200052681620004dd565b81146200053257600080fd5b50565b6200054081620004f1565b81146200054c57600080fd5b50565b60805160a05160601c60c051613deb62000589600039806117af525080610ae25280611263525080610a2052806111b85250613deb6000f3fe60806040526004361061019c5760003560e01c806370a08231116100ec578063b7416f2a1161008a578063e542a13411610064578063e542a134146105f3578063e985e9c51461061e578063f17302751461065b578063f2fde38b146106865761019c565b8063b7416f2a14610550578063b88d4fde1461058d578063c87b56dd146105b65761019c565b806395d89b41116100c657806395d89b41146104a35780639e34070f146104ce578063a22cb4651461050b578063a4160bd9146105345761019c565b806370a0823114610424578063715018a6146104615780638da5cb5b146104785761019c565b80632eb4a7ab116101595780634f6ccce7116101335780634f6ccce71461035457806361d027b3146103915780636352211e146103bc5780636c0360eb146103f95761019c565b80632eb4a7ab146102c35780632f745c59146102ee57806342842e0e1461032b5761019c565b806301ffc9a7146101a157806306fdde03146101de578063081812fc14610209578063095ea7b31461024657806318160ddd1461026f57806323b872dd1461029a575b600080fd5b3480156101ad57600080fd5b506101c860048036038101906101c391906133f2565b6106af565b6040516101d591906137d6565b60405180910390f35b3480156101ea57600080fd5b506101f3610716565b604051610200919061380c565b60405180910390f35b34801561021557600080fd5b50610230600480360381019061022b919061341b565b6107b8565b60405161023d91906137a0565b60405180910390f35b34801561025257600080fd5b5061026d6004803603810190610268919061338d565b610853565b005b34801561027b57600080fd5b50610284610997565b60405161029191906138ae565b60405180910390f35b3480156102a657600080fd5b506102c160048036038101906102bc9190613287565b6109a8565b005b3480156102cf57600080fd5b506102d8610a1e565b6040516102e591906137f1565b60405180910390f35b3480156102fa57600080fd5b506103156004803603810190610310919061338d565b610a42565b60405161032291906138ae565b60405180910390f35b34801561033757600080fd5b50610352600480360381019061034d9190613287565b610a9d565b005b34801561036057600080fd5b5061037b6004803603810190610376919061341b565b610abd565b60405161038891906138ae565b60405180910390f35b34801561039d57600080fd5b506103a6610ae0565b6040516103b391906137bb565b60405180910390f35b3480156103c857600080fd5b506103e360048036038101906103de919061341b565b610b04565b6040516103f091906137a0565b60405180910390f35b34801561040557600080fd5b5061040e610b3b565b60405161041b919061380c565b60405180910390f35b34801561043057600080fd5b5061044b60048036038101906104469190613222565b610bdd565b60405161045891906138ae565b60405180910390f35b34801561046d57600080fd5b50610476610cb2565b005b34801561048457600080fd5b5061048d610e22565b60405161049a91906137a0565b60405180910390f35b3480156104af57600080fd5b506104b8610e4c565b6040516104c5919061380c565b60405180910390f35b3480156104da57600080fd5b506104f560048036038101906104f0919061341b565b610eee565b60405161050291906137d6565b60405180910390f35b34801561051757600080fd5b50610532600480360381019061052d9190613351565b610f40565b005b61054e60048036038101906105499190613444565b6110f6565b005b34801561055c57600080fd5b50610577600480360381019061057291906133c9565b6113b2565b60405161058491906138ae565b60405180910390f35b34801561059957600080fd5b506105b460048036038101906105af91906132d6565b6113ca565b005b3480156105c257600080fd5b506105dd60048036038101906105d8919061341b565b611442565b6040516105ea919061380c565b60405180910390f35b3480156105ff57600080fd5b50610608611713565b60405161061591906138ae565b60405180910390f35b34801561062a57600080fd5b506106456004803603810190610640919061324b565b611719565b60405161065291906137d6565b60405180910390f35b34801561066757600080fd5b506106706117ad565b60405161067d91906138ae565b60405180910390f35b34801561069257600080fd5b506106ad60048036038101906106a89190613222565b6117d1565b005b6000806000837bffffffffffffffffffffffffffffffffffffffffffffffffffffffff19167bffffffffffffffffffffffffffffffffffffffffffffffffffffffff1916815260200190815260200160002060009054906101000a900460ff169050919050565b606060068054600181600116156101000203166002900480601f0160208091040260200160405190810160405280929190818152602001828054600181600116156101000203166002900480156107ae5780601f10610783576101008083540402835291602001916107ae565b820191906000526020600020905b81548152906001019060200180831161079157829003601f168201915b5050505050905090565b60006107c3826119c6565b610818576040517f08c379a000000000000000000000000000000000000000000000000000000000815260040180806020018281038252602c815260200180613cb4602c913960400191505060405180910390fd5b6004600083815260200190815260200160002060009054906101000a900473ffffffffffffffffffffffffffffffffffffffff169050919050565b600061085e82610b04565b90508073ffffffffffffffffffffffffffffffffffffffff168373ffffffffffffffffffffffffffffffffffffffff1614156108e5576040517f08c379a0000000000000000000000000000000000000000000000000000000008152600401808060200182810382526021815260200180613d646021913960400191505060405180910390fd5b8073ffffffffffffffffffffffffffffffffffffffff166109046119e3565b73ffffffffffffffffffffffffffffffffffffffff16148061093357506109328161092d6119e3565b611719565b5b610988576040517f08c379a0000000000000000000000000000000000000000000000000000000008152600401808060200182810382526038815260200180613c076038913960400191505060405180910390fd5b61099283836119eb565b505050565b60006109a36002611aa4565b905090565b6109b96109b36119e3565b82611ab9565b610a0e576040517f08c379a0000000000000000000000000000000000000000000000000000000008152600401808060200182810382526031815260200180613d856031913960400191505060405180910390fd5b610a19838383611bad565b505050565b7f000000000000000000000000000000000000000000000000000000000000000081565b6000610a9582600160008673ffffffffffffffffffffffffffffffffffffffff1673ffffffffffffffffffffffffffffffffffffffff168152602001908152602001600020611df090919063ffffffff16565b905092915050565b610ab8838383604051806020016040528060008152506113ca565b505050565b600080610ad4836002611e0a90919063ffffffff16565b50905080915050919050565b7f000000000000000000000000000000000000000000000000000000000000000081565b6000610b3482604051806060016040528060298152602001613c69602991396002611e369092919063ffffffff16565b9050919050565b606060098054600181600116156101000203166002900480601f016020809104026020016040519081016040528092919081815260200182805460018160011615610100020316600290048015610bd35780601f10610ba857610100808354040283529160200191610bd3565b820191906000526020600020905b815481529060010190602001808311610bb657829003601f168201915b5050505050905090565b60008073ffffffffffffffffffffffffffffffffffffffff168273ffffffffffffffffffffffffffffffffffffffff161415610c64576040517f08c379a000000000000000000000000000000000000000000000000000000000815260040180806020018281038252602a815260200180613c3f602a913960400191505060405180910390fd5b610cab600160008473ffffffffffffffffffffffffffffffffffffffff1673ffffffffffffffffffffffffffffffffffffffff168152602001908152602001600020611e55565b9050919050565b610cba6119e3565b73ffffffffffffffffffffffffffffffffffffffff16610cd8610e22565b73ffffffffffffffffffffffffffffffffffffffff1614610d61576040517f08c379a00000000000000000000000000000000000000000000000000000000081526004018080602001828103825260208152602001807f4f776e61626c653a2063616c6c6572206973206e6f7420746865206f776e657281525060200191505060405180910390fd5b600073ffffffffffffffffffffffffffffffffffffffff16600a60009054906101000a900473ffffffffffffffffffffffffffffffffffffffff1673ffffffffffffffffffffffffffffffffffffffff167f8be0079c531659141344cd1fd0a4f28419497f9722a3daafe3b4186f6b6457e060405160405180910390a36000600a60006101000a81548173ffffffffffffffffffffffffffffffffffffffff021916908373ffffffffffffffffffffffffffffffffffffffff160217905550565b6000600a60009054906101000a900473ffffffffffffffffffffffffffffffffffffffff16905090565b606060078054600181600116156101000203166002900480601f016020809104026020016040519081016040528092919081815260200182805460018160011615610100020316600290048015610ee45780601f10610eb957610100808354040283529160200191610ee4565b820191906000526020600020905b815481529060010190602001808311610ec757829003601f168201915b5050505050905090565b6000806101008381610efc57fe5b04905060006101008481610f0c57fe5b0690506000600e60008481526020019081526020016000205490506000826001901b90508081831614945050505050919050565b610f486119e3565b73ffffffffffffffffffffffffffffffffffffffff168273ffffffffffffffffffffffffffffffffffffffff161415610fe9576040517f08c379a00000000000000000000000000000000000000000000000000000000081526004018080602001828103825260198152602001807f4552433732313a20617070726f766520746f2063616c6c65720000000000000081525060200191505060405180910390fd5b8060056000610ff66119e3565b73ffffffffffffffffffffffffffffffffffffffff1673ffffffffffffffffffffffffffffffffffffffff16815260200190815260200160002060008473ffffffffffffffffffffffffffffffffffffffff1673ffffffffffffffffffffffffffffffffffffffff16815260200190815260200160002060006101000a81548160ff0219169083151502179055508173ffffffffffffffffffffffffffffffffffffffff166110a36119e3565b73ffffffffffffffffffffffffffffffffffffffff167f17307eab39ab6107e8899845ad3d59bd9653f200f220920489ca2b5937696c318360405180821515815260200191505060405180910390a35050565b6110ff85610eee565b1561113f576040517f08c379a00000000000000000000000000000000000000000000000000000000081526004016111369061386e565b60405180910390fd5b600085858560016040516020016111599493929190613765565b6040516020818303038152906040528051906020012090506111dd838380806020026020016040519081016040528093929190818152602001838360200280828437600081840152601f19601f820116905080830192505050505050507f000000000000000000000000000000000000000000000000000000000000000083611e6a565b61121c576040517f08c379a00000000000000000000000000000000000000000000000000000000081526004016112139061388e565b60405180910390fd5b600c54341015611261576040517f08c379a00000000000000000000000000000000000000000000000000000000081526004016112589061384e565b60405180910390fd5b7f000000000000000000000000000000000000000000000000000000000000000073ffffffffffffffffffffffffffffffffffffffff166108fc349081150290604051600060405180830381858888f193505050501580156112c7573d6000803e3d6000fd5b506112d0611f1f565b6112d98661210b565b6000339050600061132e8288888080601f016020809104026020016040519081016040528093929190818152602001838380828437600081840152601f19601f82011690508083019250505050505050612161565b1161136e576040517f08c379a00000000000000000000000000000000000000000000000000000000081526004016113659061382e565b60405180910390fd5b7f66332d56e58af16d81026c86e6ba03f60dcd2980ba54d7da17313a73157d16ff8787876040516113a1939291906138c9565b60405180910390a150505050505050565b600d6020528060005260406000206000915090505481565b6113db6113d56119e3565b83611ab9565b611430576040517f08c379a0000000000000000000000000000000000000000000000000000000008152600401808060200182810382526031815260200180613d856031913960400191505060405180910390fd5b61143c848484846121dc565b50505050565b606061144d826119c6565b6114a2576040517f08c379a000000000000000000000000000000000000000000000000000000000815260040180806020018281038252602f815260200180613d35602f913960400191505060405180910390fd5b6060600860008481526020019081526020016000208054600181600116156101000203166002900480601f01602080910402602001604051908101604052809291908181526020018280546001816001161561010002031660029004801561154b5780601f106115205761010080835404028352916020019161154b565b820191906000526020600020905b81548152906001019060200180831161152e57829003601f168201915b50505050509050606061155c610b3b565b905060008151141561157257819250505061170e565b6000825111156116435780826040516020018083805190602001908083835b602083106115b45780518252602082019150602081019050602083039250611591565b6001836020036101000a03801982511681845116808217855250505050505090500182805190602001908083835b6020831061160557805182526020820191506020810190506020830392506115e2565b6001836020036101000a038019825116818451168082178552505050505050905001925050506040516020818303038152906040529250505061170e565b8061164d8561224e565b6040516020018083805190602001908083835b602083106116835780518252602082019150602081019050602083039250611660565b6001836020036101000a03801982511681845116808217855250505050505090500182805190602001908083835b602083106116d457805182526020820191506020810190506020830392506116b1565b6001836020036101000a03801982511681845116808217855250505050505090500192505050604051602081830303815290604052925050505b919050565b600c5481565b6000600560008473ffffffffffffffffffffffffffffffffffffffff1673ffffffffffffffffffffffffffffffffffffffff16815260200190815260200160002060008373ffffffffffffffffffffffffffffffffffffffff1673ffffffffffffffffffffffffffffffffffffffff16815260200190815260200160002060009054906101000a900460ff16905092915050565b7f000000000000000000000000000000000000000000000000000000000000000081565b6117d96119e3565b73ffffffffffffffffffffffffffffffffffffffff166117f7610e22565b73ffffffffffffffffffffffffffffffffffffffff1614611880576040517f08c379a00000000000000000000000000000000000000000000000000000000081526004018080602001828103825260208152602001807f4f776e61626c653a2063616c6c6572206973206e6f7420746865206f776e657281525060200191505060405180910390fd5b600073ffffffffffffffffffffffffffffffffffffffff168173ffffffffffffffffffffffffffffffffffffffff161415611906576040517f08c379a0000000000000000000000000000000000000000000000000000000008152600401808060200182810382526026815260200180613b6b6026913960400191505060405180910390fd5b8073ffffffffffffffffffffffffffffffffffffffff16600a60009054906101000a900473ffffffffffffffffffffffffffffffffffffffff1673ffffffffffffffffffffffffffffffffffffffff167f8be0079c531659141344cd1fd0a4f28419497f9722a3daafe3b4186f6b6457e060405160405180910390a380600a60006101000a81548173ffffffffffffffffffffffffffffffffffffffff021916908373ffffffffffffffffffffffffffffffffffffffff16021790555050565b60006119dc82600261239590919063ffffffff16565b9050919050565b600033905090565b816004600083815260200190815260200160002060006101000a81548173ffffffffffffffffffffffffffffffffffffffff021916908373ffffffffffffffffffffffffffffffffffffffff160217905550808273ffffffffffffffffffffffffffffffffffffffff16611a5e83610b04565b73ffffffffffffffffffffffffffffffffffffffff167f8c5be1e5ebec7d5bd14f71427d1e84f3dd0314c0f7b2291e5b200ac8c7c3b92560405160405180910390a45050565b6000611ab2826000016123af565b9050919050565b6000611ac4826119c6565b611b19576040517f08c379a000000000000000000000000000000000000000000000000000000000815260040180806020018281038252602c815260200180613bdb602c913960400191505060405180910390fd5b6000611b2483610b04565b90508073ffffffffffffffffffffffffffffffffffffffff168473ffffffffffffffffffffffffffffffffffffffff161480611b9357508373ffffffffffffffffffffffffffffffffffffffff16611b7b846107b8565b73ffffffffffffffffffffffffffffffffffffffff16145b80611ba45750611ba38185611719565b5b91505092915050565b8273ffffffffffffffffffffffffffffffffffffffff16611bcd82610b04565b73ffffffffffffffffffffffffffffffffffffffff1614611c39576040517f08c379a0000000000000000000000000000000000000000000000000000000008152600401808060200182810382526029815260200180613d0c6029913960400191505060405180910390fd5b600073ffffffffffffffffffffffffffffffffffffffff168273ffffffffffffffffffffffffffffffffffffffff161415611cbf576040517f08c379a0000000000000000000000000000000000000000000000000000000008152600401808060200182810382526024815260200180613b916024913960400191505060405180910390fd5b611cca8383836123c0565b611cd56000826119eb565b611d2681600160008673ffffffffffffffffffffffffffffffffffffffff1673ffffffffffffffffffffffffffffffffffffffff1681526020019081526020016000206123c590919063ffffffff16565b50611d7881600160008573ffffffffffffffffffffffffffffffffffffffff1673ffffffffffffffffffffffffffffffffffffffff1681526020019081526020016000206123df90919063ffffffff16565b50611d8f818360026123f99092919063ffffffff16565b50808273ffffffffffffffffffffffffffffffffffffffff168473ffffffffffffffffffffffffffffffffffffffff167fddf252ad1be2c89b69c2b068fc378daa952ba7f163c4a11628f55a4df523b3ef60405160405180910390a4505050565b6000611dff836000018361242e565b60001c905092915050565b600080600080611e1d86600001866124b1565b915091508160001c8160001c9350935050509250929050565b6000611e49846000018460001b8461254a565b60001c90509392505050565b6000611e6382600001612640565b9050919050565b60008082905060005b8551811015611f11576000868281518110611e8a57fe5b60200260200101519050808311611ed15782816040516020018083815260200182815260200192505050604051602081830303815290604052805190602001209250611f03565b808360405160200180838152602001828152602001925050506040516020818303038152906040528051906020012092505b508080600101915050611e73565b508381149150509392505050565b6107d0600b6000015410158015611f3c5750610fa0600b60000154105b15611f5557670429d069189e0000600c81905550612109565b610fa0600b6000015410158015611f725750611770600b60000154105b15611f8b576706f05b59d3b20000600c81905550612108565b611770600b6000015410158015611fa85750611f40600b60000154105b15611fc157670c7d713b49da0000600c81905550612107565b611f40600b6000015410158015611fde5750612328600b60000154105b15611ff757670f43fc2c04ee0000600c81905550612106565b612328600b6000015410158015612014575061251c600b60000154105b1561202d5767120a871cc0020000600c81905550612105565b61251c600b600001541015801561204a5750612616600b60000154105b15612063576714d1120d7b160000600c81905550612104565b612616600b60000154101580156120805750612693600b60000154105b15612099576717979cfe362a0000600c81905550612103565b612693600b60000154101580156120b657506126de600b60000154105b156120cf57671a5e27eef13e0000600c81905550612102565b6126de600b60000154101580156120ec5750612710600b60000154105b1561210157671d24b2dfac520000600c819055505b5b5b5b5b5b5b5b5b565b6000610100828161211857fe5b0490506000610100838161212857fe5b069050806001901b600e60008481526020019081526020016000205417600e600084815260200190815260200160002081905550505050565b60008082604051602001612175919061374e565b604051602081830303815290604052805190602001209050612197600b612651565b60006121a3600b612667565b90506121af8582612675565b6121b98185612869565b80600d600084815260200190815260200160002081905550809250505092915050565b6121e7848484611bad565b6121f3848484846128f3565b612248576040517f08c379a0000000000000000000000000000000000000000000000000000000008152600401808060200182810382526032815260200180613b396032913960400191505060405180910390fd5b50505050565b60606000821415612296576040518060400160405280600181526020017f30000000000000000000000000000000000000000000000000000000000000008152509050612390565b600082905060005b600082146122c0578080600101915050600a82816122b857fe5b04915061229e565b60608167ffffffffffffffff811180156122d957600080fd5b506040519080825280601f01601f19166020018201604052801561230c5781602001600182028036833780820191505090505b50905060006001830390508593505b6000841461238857600a848161232d57fe5b0660300160f81b8282806001900393508151811061234757fe5b60200101907effffffffffffffffffffffffffffffffffffffffffffffffffffffffffffff1916908160001a905350600a848161238057fe5b04935061231b565b819450505050505b919050565b60006123a7836000018360001b612b0c565b905092915050565b600081600001805490509050919050565b505050565b60006123d7836000018360001b612b2f565b905092915050565b60006123f1836000018360001b612c17565b905092915050565b6000612425846000018460001b8473ffffffffffffffffffffffffffffffffffffffff1660001b612c87565b90509392505050565b60008183600001805490501161248f576040517f08c379a0000000000000000000000000000000000000000000000000000000008152600401808060200182810382526022815260200180613b176022913960400191505060405180910390fd5b82600001828154811061249e57fe5b9060005260206000200154905092915050565b60008082846000018054905011612513576040517f08c379a0000000000000000000000000000000000000000000000000000000008152600401808060200182810382526022815260200180613c926022913960400191505060405180910390fd5b600084600001848154811061252457fe5b906000526020600020906002020190508060000154816001015492509250509250929050565b60008084600101600085815260200190815260200160002054905060008114158390612611576040517f08c379a00000000000000000000000000000000000000000000000000000000081526004018080602001828103825283818151815260200191508051906020019080838360005b838110156125d65780820151818401526020810190506125bb565b50505050905090810190601f1680156126035780820380516001836020036101000a031916815260200191505b509250505060405180910390fd5b5084600001600182038154811061262457fe5b9060005260206000209060020201600101549150509392505050565b600081600001805490509050919050565b6001816000016000828254019250508190555050565b600081600001549050919050565b600073ffffffffffffffffffffffffffffffffffffffff168273ffffffffffffffffffffffffffffffffffffffff161415612718576040517f08c379a00000000000000000000000000000000000000000000000000000000081526004018080602001828103825260208152602001807f4552433732313a206d696e7420746f20746865207a65726f206164647265737381525060200191505060405180910390fd5b612721816119c6565b15612794576040517f08c379a000000000000000000000000000000000000000000000000000000000815260040180806020018281038252601c8152602001807f4552433732313a20746f6b656e20616c7265616479206d696e7465640000000081525060200191505060405180910390fd5b6127a0600083836123c0565b6127f181600160008573ffffffffffffffffffffffffffffffffffffffff1673ffffffffffffffffffffffffffffffffffffffff1681526020019081526020016000206123df90919063ffffffff16565b50612808818360026123f99092919063ffffffff16565b50808273ffffffffffffffffffffffffffffffffffffffff16600073ffffffffffffffffffffffffffffffffffffffff167fddf252ad1be2c89b69c2b068fc378daa952ba7f163c4a11628f55a4df523b3ef60405160405180910390a45050565b612872826119c6565b6128c7576040517f08c379a000000000000000000000000000000000000000000000000000000000815260040180806020018281038252602c815260200180613ce0602c913960400191505060405180910390fd5b806008600084815260200190815260200160002090805190602001906128ee929190613026565b505050565b60006129148473ffffffffffffffffffffffffffffffffffffffff16612d63565b6129215760019050612b04565b6060612a8b63150b7a0260e01b6129366119e3565b888787604051602401808573ffffffffffffffffffffffffffffffffffffffff1681526020018473ffffffffffffffffffffffffffffffffffffffff16815260200183815260200180602001828103825283818151815260200191508051906020019080838360005b838110156129ba57808201518184015260208101905061299f565b50505050905090810190601f1680156129e75780820380516001836020036101000a031916815260200191505b5095505050505050604051602081830303815290604052907bffffffffffffffffffffffffffffffffffffffffffffffffffffffff19166020820180517bffffffffffffffffffffffffffffffffffffffffffffffffffffffff8381831617835250505050604051806060016040528060328152602001613b39603291398773ffffffffffffffffffffffffffffffffffffffff16612d769092919063ffffffff16565b90506000818060200190516020811015612aa457600080fd5b8101908080519060200190929190505050905063150b7a0260e01b7bffffffffffffffffffffffffffffffffffffffffffffffffffffffff1916817bffffffffffffffffffffffffffffffffffffffffffffffffffffffff191614925050505b949350505050565b600080836001016000848152602001908152602001600020541415905092915050565b60008083600101600084815260200190815260200160002054905060008114612c0b5760006001820390506000600186600001805490500390506000866000018281548110612b7a57fe5b9060005260206000200154905080876000018481548110612b9757fe5b9060005260206000200181905550600183018760010160008381526020019081526020016000208190555086600001805480612bcf57fe5b60019003818190600052602060002001600090559055866001016000878152602001908152602001600020600090556001945050505050612c11565b60009150505b92915050565b6000612c238383612d8e565b612c7c578260000182908060018154018082558091505060019003906000526020600020016000909190919091505582600001805490508360010160008481526020019081526020016000208190555060019050612c81565b600090505b92915050565b6000808460010160008581526020019081526020016000205490506000811415612d2e57846000016040518060400160405280868152602001858152509080600181540180825580915050600190039060005260206000209060020201600090919091909150600082015181600001556020820151816001015550508460000180549050856001016000868152602001908152602001600020819055506001915050612d5c565b82856000016001830381548110612d4157fe5b90600052602060002090600202016001018190555060009150505b9392505050565b600080823b905060008111915050919050565b6060612d858484600085612db1565b90509392505050565b600080836001016000848152602001908152602001600020541415905092915050565b606082471015612e0c576040517f08c379a0000000000000000000000000000000000000000000000000000000008152600401808060200182810382526026815260200180613bb56026913960400191505060405180910390fd5b612e1585612d63565b612e87576040517f08c379a000000000000000000000000000000000000000000000000000000000815260040180806020018281038252601d8152602001807f416464726573733a2063616c6c20746f206e6f6e2d636f6e747261637400000081525060200191505060405180910390fd5b600060608673ffffffffffffffffffffffffffffffffffffffff1685876040518082805190602001908083835b60208310612ed75780518252602082019150602081019050602083039250612eb4565b6001836020036101000a03801982511681845116808217855250505050505090500191505060006040518083038185875af1925050503d8060008114612f39576040519150601f19603f3d011682016040523d82523d6000602084013e612f3e565b606091505b5091509150612f4e828286612f5a565b92505050949350505050565b60608315612f6a5782905061301f565b600083511115612f7d5782518084602001fd5b816040517f08c379a00000000000000000000000000000000000000000000000000000000081526004018080602001828103825283818151815260200191508051906020019080838360005b83811015612fe4578082015181840152602081019050612fc9565b50505050905090810190601f1680156130115780820380516001836020036101000a031916815260200191505b509250505060405180910390fd5b9392505050565b828054600181600116156101000203166002900490600052602060002090601f01602090048101928261305c57600085556130a3565b82601f1061307557805160ff19168380011785556130a3565b828001600101855582156130a3579182015b828111156130a2578251825591602001919060010190613087565b5b5090506130b091906130b4565b5090565b5b808211156130cd5760008160009055506001016130b5565b5090565b6000813590506130e081613aa3565b92915050565b60008083601f8401126130f857600080fd5b8235905067ffffffffffffffff81111561311157600080fd5b60208301915083602082028301111561312957600080fd5b9250929050565b60008135905061313f81613aba565b92915050565b60008135905061315481613ad1565b92915050565b60008135905061316981613ae8565b92915050565b600082601f83011261318057600080fd5b813561319361318e8261392c565b6138fb565b915080825260208301602083018583830111156131af57600080fd5b6131ba838284613a13565b50505092915050565b60008083601f8401126131d557600080fd5b8235905067ffffffffffffffff8111156131ee57600080fd5b60208301915083600182028301111561320657600080fd5b9250929050565b60008135905061321c81613aff565b92915050565b60006020828403121561323457600080fd5b6000613242848285016130d1565b91505092915050565b6000806040838503121561325e57600080fd5b600061326c858286016130d1565b925050602061327d858286016130d1565b9150509250929050565b60008060006060848603121561329c57600080fd5b60006132aa868287016130d1565b93505060206132bb868287016130d1565b92505060406132cc8682870161320d565b9150509250925092565b600080600080608085870312156132ec57600080fd5b60006132fa878288016130d1565b945050602061330b878288016130d1565b935050604061331c8782880161320d565b925050606085013567ffffffffffffffff81111561333957600080fd5b6133458782880161316f565b91505092959194509250565b6000806040838503121561336457600080fd5b6000613372858286016130d1565b925050602061338385828601613130565b9150509250929050565b600080604083850312156133a057600080fd5b60006133ae858286016130d1565b92505060206133bf8582860161320d565b9150509250929050565b6000602082840312156133db57600080fd5b60006133e984828501613145565b91505092915050565b60006020828403121561340457600080fd5b60006134128482850161315a565b91505092915050565b60006020828403121561342d57600080fd5b600061343b8482850161320d565b91505092915050565b60008060008060006060868803121561345c57600080fd5b600061346a8882890161320d565b955050602086013567ffffffffffffffff81111561348757600080fd5b613493888289016131c3565b9450945050604086013567ffffffffffffffff8111156134b257600080fd5b6134be888289016130e6565b92509250509295509295909350565b6134d681613995565b82525050565b6134e581613983565b82525050565b6134f4816139a7565b82525050565b61350b613506826139a7565b613a55565b82525050565b61351a816139b3565b82525050565b600061352c8385613967565b9350613539838584613a13565b61354283613a85565b840190509392505050565b60006135598385613978565b9350613566838584613a13565b82840190509392505050565b600061357d8261395c565b6135878185613967565b9350613597818560208601613a22565b6135a081613a85565b840191505092915050565b60006135b68261395c565b6135c08185613978565b93506135d0818560208601613a22565b80840191505092915050565b60006135e9601e83613967565b91507f4d616368696e654d61736b733a205472616e73666572206661696c65642e00006000830152602082019050919050565b6000613629602b83613967565b91507f4d616368696e654d61736b733a204e6f742073756666696369656e7420616d6f60008301527f756e74206f66204554482e0000000000000000000000000000000000000000006020830152604082019050919050565b600061368f602383613967565b91507f4d616368696e654d61736b733a2044726f7020616c726561647920636c61696d60008301527f65642e00000000000000000000000000000000000000000000000000000000006020830152604082019050919050565b60006136f5601c83613967565b91507f4d616368696e654d61736b733a20496e76616c69642070726f6f662e000000006000830152602082019050919050565b61373181613a09565b82525050565b61374861374382613a09565b613a67565b82525050565b600061375a82846135ab565b915081905092915050565b60006137718287613737565b60208201915061378282858761354d565b915061378e82846134fa565b60018201915081905095945050505050565b60006020820190506137b560008301846134dc565b92915050565b60006020820190506137d060008301846134cd565b92915050565b60006020820190506137eb60008301846134eb565b92915050565b60006020820190506138066000830184613511565b92915050565b600060208201905081810360008301526138268184613572565b905092915050565b60006020820190508181036000830152613847816135dc565b9050919050565b600060208201905081810360008301526138678161361c565b9050919050565b6000602082019050818103600083015261388781613682565b9050919050565b600060208201905081810360008301526138a7816136e8565b9050919050565b60006020820190506138c36000830184613728565b92915050565b60006040820190506138de6000830186613728565b81810360208301526138f1818486613520565b9050949350505050565b6000604051905081810181811067ffffffffffffffff8211171561392257613921613a83565b5b8060405250919050565b600067ffffffffffffffff82111561394757613946613a83565b5b601f19601f8301169050602081019050919050565b600081519050919050565b600082825260208201905092915050565b600081905092915050565b600061398e826139e9565b9050919050565b60006139a0826139e9565b9050919050565b60008115159050919050565b6000819050919050565b60007fffffffff0000000000000000000000000000000000000000000000000000000082169050919050565b600073ffffffffffffffffffffffffffffffffffffffff82169050919050565b6000819050919050565b82818337600083830152505050565b60005b83811015613a40578082015181840152602081019050613a25565b83811115613a4f576000848401525b50505050565b6000613a6082613a71565b9050919050565b6000819050919050565b6000613a7c82613a96565b9050919050565bfe5b6000601f19601f8301169050919050565b60008160f81b9050919050565b613aac81613983565b8114613ab757600080fd5b50565b613ac3816139a7565b8114613ace57600080fd5b50565b613ada816139b3565b8114613ae557600080fd5b50565b613af1816139bd565b8114613afc57600080fd5b50565b613b0881613a09565b8114613b1357600080fd5b5056fe456e756d657261626c655365743a20696e646578206f7574206f6620626f756e64734552433732313a207472616e7366657220746f206e6f6e20455243373231526563656976657220696d706c656d656e7465724f776e61626c653a206e6577206f776e657220697320746865207a65726f20616464726573734552433732313a207472616e7366657220746f20746865207a65726f2061646472657373416464726573733a20696e73756666696369656e742062616c616e636520666f722063616c6c4552433732313a206f70657261746f7220717565727920666f72206e6f6e6578697374656e7420746f6b656e4552433732313a20617070726f76652063616c6c6572206973206e6f74206f776e6572206e6f7220617070726f76656420666f7220616c6c4552433732313a2062616c616e636520717565727920666f7220746865207a65726f20616464726573734552433732313a206f776e657220717565727920666f72206e6f6e6578697374656e7420746f6b656e456e756d657261626c654d61703a20696e646578206f7574206f6620626f756e64734552433732313a20617070726f76656420717565727920666f72206e6f6e6578697374656e7420746f6b656e4552433732314d657461646174613a2055524920736574206f66206e6f6e6578697374656e7420746f6b656e4552433732313a207472616e73666572206f6620746f6b656e2074686174206973206e6f74206f776e4552433732314d657461646174613a2055524920717565727920666f72206e6f6e6578697374656e7420746f6b656e4552433732313a20617070726f76616c20746f2063757272656e74206f776e65724552433732313a207472616e736665722063616c6c6572206973206e6f74206f776e6572206e6f7220617070726f766564a26469706673582212200ed5ef1c6dd3c53b2847aed4b4cef15e8a0294339e7361cc14fdd40060e75edd64736f6c63430007050033",
  "linkReferences": {},
  "deployedLinkReferences": {}
}